{
  "contractName": "ProofX",
  "abi": [
    {
      "inputs": [],
      "stateMutability": "nonpayable",
      "type": "constructor"
    },
    {
      "anonymous": false,
      "inputs": [
        {
          "indexed": true,
          "internalType": "address",
          "name": "owner",
          "type": "address"
        },
        {
          "indexed": true,
          "internalType": "address",
          "name": "spender",
          "type": "address"
        },
        {
          "indexed": false,
          "internalType": "uint256",
          "name": "value",
          "type": "uint256"
        }
      ],
      "name": "Approval",
      "type": "event"
    },
    {
      "anonymous": false,
      "inputs": [
        {
          "indexed": true,
          "internalType": "address",
          "name": "delegator",
          "type": "address"
        },
        {
          "indexed": true,
          "internalType": "address",
          "name": "fromDelegate",
          "type": "address"
        },
        {
          "indexed": true,
          "internalType": "address",
          "name": "toDelegate",
          "type": "address"
        }
      ],
      "name": "DelegateChanged",
      "type": "event"
    },
    {
      "anonymous": false,
      "inputs": [
        {
          "indexed": true,
          "internalType": "address",
          "name": "delegate",
          "type": "address"
        },
        {
          "indexed": false,
          "internalType": "uint256",
          "name": "previousBalance",
          "type": "uint256"
        },
        {
          "indexed": false,
          "internalType": "uint256",
          "name": "newBalance",
          "type": "uint256"
        }
      ],
      "name": "DelegateVotesChanged",
      "type": "event"
    },
    {
      "anonymous": false,
      "inputs": [
        {
          "indexed": false,
          "internalType": "uint8",
          "name": "version",
          "type": "uint8"
        }
      ],
      "name": "Initialized",
      "type": "event"
    },
    {
      "anonymous": false,
      "inputs": [
        {
          "indexed": true,
          "internalType": "address",
          "name": "previousOwner",
          "type": "address"
        },
        {
          "indexed": true,
          "internalType": "address",
          "name": "newOwner",
          "type": "address"
        }
      ],
      "name": "OwnershipTransferred",
      "type": "event"
    },
    {
      "anonymous": false,
      "inputs": [
        {
          "indexed": true,
          "internalType": "address",
          "name": "from",
          "type": "address"
        },
        {
          "indexed": true,
          "internalType": "address",
          "name": "to",
          "type": "address"
        },
        {
          "indexed": false,
          "internalType": "uint256",
          "name": "value",
          "type": "uint256"
        }
      ],
      "name": "Transfer",
      "type": "event"
    },
    {
      "inputs": [],
      "name": "DOMAIN_SEPARATOR",
      "outputs": [
        {
          "internalType": "bytes32",
          "name": "",
          "type": "bytes32"
        }
      ],
      "stateMutability": "view",
      "type": "function",
      "constant": true
    },
    {
      "inputs": [
        {
          "internalType": "address",
          "name": "owner",
          "type": "address"
        },
        {
          "internalType": "address",
          "name": "spender",
          "type": "address"
        }
      ],
      "name": "allowance",
      "outputs": [
        {
          "internalType": "uint256",
          "name": "",
          "type": "uint256"
        }
      ],
      "stateMutability": "view",
      "type": "function",
      "constant": true
    },
    {
      "inputs": [
        {
          "internalType": "address",
          "name": "spender",
          "type": "address"
        },
        {
          "internalType": "uint256",
          "name": "amount",
          "type": "uint256"
        }
      ],
      "name": "approve",
      "outputs": [
        {
          "internalType": "bool",
          "name": "",
          "type": "bool"
        }
      ],
      "stateMutability": "nonpayable",
      "type": "function"
    },
    {
      "inputs": [
        {
          "internalType": "address",
          "name": "account",
          "type": "address"
        }
      ],
      "name": "balanceOf",
      "outputs": [
        {
          "internalType": "uint256",
          "name": "",
          "type": "uint256"
        }
      ],
      "stateMutability": "view",
      "type": "function",
      "constant": true
    },
    {
      "inputs": [
        {
          "internalType": "uint256",
          "name": "amount",
          "type": "uint256"
        }
      ],
      "name": "burn",
      "outputs": [],
      "stateMutability": "nonpayable",
      "type": "function"
    },
    {
      "inputs": [
        {
          "internalType": "address",
          "name": "account",
          "type": "address"
        },
        {
          "internalType": "uint256",
          "name": "amount",
          "type": "uint256"
        }
      ],
      "name": "burnFrom",
      "outputs": [],
      "stateMutability": "nonpayable",
      "type": "function"
    },
    {
      "inputs": [
        {
          "internalType": "address",
          "name": "account",
          "type": "address"
        },
        {
          "internalType": "uint32",
          "name": "pos",
          "type": "uint32"
        }
      ],
      "name": "checkpoints",
      "outputs": [
        {
          "components": [
            {
              "internalType": "uint32",
              "name": "fromBlock",
              "type": "uint32"
            },
            {
              "internalType": "uint224",
              "name": "votes",
              "type": "uint224"
            }
          ],
          "internalType": "struct ERC20VotesUpgradeable.Checkpoint",
          "name": "",
          "type": "tuple"
        }
      ],
      "stateMutability": "view",
      "type": "function",
      "constant": true
    },
    {
      "inputs": [],
      "name": "decimals",
      "outputs": [
        {
          "internalType": "uint8",
          "name": "",
          "type": "uint8"
        }
      ],
      "stateMutability": "view",
      "type": "function",
      "constant": true
    },
    {
      "inputs": [
        {
          "internalType": "address",
          "name": "spender",
          "type": "address"
        },
        {
          "internalType": "uint256",
          "name": "subtractedValue",
          "type": "uint256"
        }
      ],
      "name": "decreaseAllowance",
      "outputs": [
        {
          "internalType": "bool",
          "name": "",
          "type": "bool"
        }
      ],
      "stateMutability": "nonpayable",
      "type": "function"
    },
    {
      "inputs": [
        {
          "internalType": "address",
          "name": "delegatee",
          "type": "address"
        }
      ],
      "name": "delegate",
      "outputs": [],
      "stateMutability": "nonpayable",
      "type": "function"
    },
    {
      "inputs": [
        {
          "internalType": "address",
          "name": "delegatee",
          "type": "address"
        },
        {
          "internalType": "uint256",
          "name": "nonce",
          "type": "uint256"
        },
        {
          "internalType": "uint256",
          "name": "expiry",
          "type": "uint256"
        },
        {
          "internalType": "uint8",
          "name": "v",
          "type": "uint8"
        },
        {
          "internalType": "bytes32",
          "name": "r",
          "type": "bytes32"
        },
        {
          "internalType": "bytes32",
          "name": "s",
          "type": "bytes32"
        }
      ],
      "name": "delegateBySig",
      "outputs": [],
      "stateMutability": "nonpayable",
      "type": "function"
    },
    {
      "inputs": [
        {
          "internalType": "address",
          "name": "account",
          "type": "address"
        }
      ],
      "name": "delegates",
      "outputs": [
        {
          "internalType": "address",
          "name": "",
          "type": "address"
        }
      ],
      "stateMutability": "view",
      "type": "function",
      "constant": true
    },
    {
      "inputs": [
        {
          "internalType": "uint256",
          "name": "blockNumber",
          "type": "uint256"
        }
      ],
      "name": "getPastTotalSupply",
      "outputs": [
        {
          "internalType": "uint256",
          "name": "",
          "type": "uint256"
        }
      ],
      "stateMutability": "view",
      "type": "function",
      "constant": true
    },
    {
      "inputs": [
        {
          "internalType": "address",
          "name": "account",
          "type": "address"
        },
        {
          "internalType": "uint256",
          "name": "blockNumber",
          "type": "uint256"
        }
      ],
      "name": "getPastVotes",
      "outputs": [
        {
          "internalType": "uint256",
          "name": "",
          "type": "uint256"
        }
      ],
      "stateMutability": "view",
      "type": "function",
      "constant": true
    },
    {
      "inputs": [
        {
          "internalType": "address",
          "name": "account",
          "type": "address"
        }
      ],
      "name": "getVotes",
      "outputs": [
        {
          "internalType": "uint256",
          "name": "",
          "type": "uint256"
        }
      ],
      "stateMutability": "view",
      "type": "function",
      "constant": true
    },
    {
      "inputs": [
        {
          "internalType": "address",
          "name": "spender",
          "type": "address"
        },
        {
          "internalType": "uint256",
          "name": "addedValue",
          "type": "uint256"
        }
      ],
      "name": "increaseAllowance",
      "outputs": [
        {
          "internalType": "bool",
          "name": "",
          "type": "bool"
        }
      ],
      "stateMutability": "nonpayable",
      "type": "function"
    },
    {
      "inputs": [],
      "name": "name",
      "outputs": [
        {
          "internalType": "string",
          "name": "",
          "type": "string"
        }
      ],
      "stateMutability": "view",
      "type": "function",
      "constant": true
    },
    {
      "inputs": [
        {
          "internalType": "address",
          "name": "owner",
          "type": "address"
        }
      ],
      "name": "nonces",
      "outputs": [
        {
          "internalType": "uint256",
          "name": "",
          "type": "uint256"
        }
      ],
      "stateMutability": "view",
      "type": "function",
      "constant": true
    },
    {
      "inputs": [
        {
          "internalType": "address",
          "name": "account",
          "type": "address"
        }
      ],
      "name": "numCheckpoints",
      "outputs": [
        {
          "internalType": "uint32",
          "name": "",
          "type": "uint32"
        }
      ],
      "stateMutability": "view",
      "type": "function",
      "constant": true
    },
    {
      "inputs": [],
      "name": "owner",
      "outputs": [
        {
          "internalType": "address",
          "name": "",
          "type": "address"
        }
      ],
      "stateMutability": "view",
      "type": "function",
      "constant": true
    },
    {
      "inputs": [
        {
          "internalType": "address",
          "name": "owner",
          "type": "address"
        },
        {
          "internalType": "address",
          "name": "spender",
          "type": "address"
        },
        {
          "internalType": "uint256",
          "name": "value",
          "type": "uint256"
        },
        {
          "internalType": "uint256",
          "name": "deadline",
          "type": "uint256"
        },
        {
          "internalType": "uint8",
          "name": "v",
          "type": "uint8"
        },
        {
          "internalType": "bytes32",
          "name": "r",
          "type": "bytes32"
        },
        {
          "internalType": "bytes32",
          "name": "s",
          "type": "bytes32"
        }
      ],
      "name": "permit",
      "outputs": [],
      "stateMutability": "nonpayable",
      "type": "function"
    },
    {
      "inputs": [],
      "name": "renounceOwnership",
      "outputs": [],
      "stateMutability": "nonpayable",
      "type": "function"
    },
    {
      "inputs": [],
      "name": "symbol",
      "outputs": [
        {
          "internalType": "string",
          "name": "",
          "type": "string"
        }
      ],
      "stateMutability": "view",
      "type": "function",
      "constant": true
    },
    {
      "inputs": [],
      "name": "totalSupply",
      "outputs": [
        {
          "internalType": "uint256",
          "name": "",
          "type": "uint256"
        }
      ],
      "stateMutability": "view",
      "type": "function",
      "constant": true
    },
    {
      "inputs": [
        {
          "internalType": "address",
          "name": "to",
          "type": "address"
        },
        {
          "internalType": "uint256",
          "name": "amount",
          "type": "uint256"
        }
      ],
      "name": "transfer",
      "outputs": [
        {
          "internalType": "bool",
          "name": "",
          "type": "bool"
        }
      ],
      "stateMutability": "nonpayable",
      "type": "function"
    },
    {
      "inputs": [
        {
          "internalType": "address",
          "name": "from",
          "type": "address"
        },
        {
          "internalType": "address",
          "name": "to",
          "type": "address"
        },
        {
          "internalType": "uint256",
          "name": "amount",
          "type": "uint256"
        }
      ],
      "name": "transferFrom",
      "outputs": [
        {
          "internalType": "bool",
          "name": "",
          "type": "bool"
        }
      ],
      "stateMutability": "nonpayable",
      "type": "function"
    },
    {
      "inputs": [
        {
          "internalType": "address",
          "name": "newOwner",
          "type": "address"
        }
      ],
      "name": "transferOwnership",
      "outputs": [],
      "stateMutability": "nonpayable",
      "type": "function"
    },
    {
      "inputs": [],
      "name": "initialize",
      "outputs": [],
      "stateMutability": "nonpayable",
      "type": "function"
    },
    {
      "inputs": [
        {
          "internalType": "address",
          "name": "to",
          "type": "address"
        },
        {
          "internalType": "uint256",
          "name": "amount",
          "type": "uint256"
        }
      ],
      "name": "mint",
      "outputs": [],
      "stateMutability": "nonpayable",
      "type": "function"
    }
  ],
  "bytecode": "0x60806040523480156200001157600080fd5b50620000226200002860201b60201c565b620001d3565b600060019054906101000a900460ff16156200007b576040517f08c379a0000000000000000000000000000000000000000000000000000000008152600401620000729062000176565b60405180910390fd5b60ff801660008054906101000a900460ff1660ff161015620000ed5760ff6000806101000a81548160ff021916908360ff1602179055507f7f26b83ff96e1f2b6a682f133852f6798a09c465da95921460cefb384740249860ff604051620000e49190620001b6565b60405180910390a15b565b600082825260208201905092915050565b7f496e697469616c697a61626c653a20636f6e747261637420697320696e69746960008201527f616c697a696e6700000000000000000000000000000000000000000000000000602082015250565b60006200015e602783620000ef565b91506200016b8262000100565b604082019050919050565b6000602082019050818103600083015262000191816200014f565b9050919050565b600060ff82169050919050565b620001b08162000198565b82525050565b6000602082019050620001cd6000830184620001a5565b92915050565b6148da80620001e36000396000f3fe608060405234801561001057600080fd5b50600436106101cf5760003560e01c8063715018a6116101045780639ab24eb0116100a2578063d505accf11610071578063d505accf14610568578063dd62ed3e14610584578063f1127ed8146105b4578063f2fde38b146105e4576101cf565b80639ab24eb0146104bc578063a457c2d7146104ec578063a9059cbb1461051c578063c3cda5201461054c576101cf565b80638129fc1c116100de5780638129fc1c146104465780638da5cb5b146104505780638e539e8c1461046e57806395d89b411461049e576101cf565b8063715018a6146103f057806379cc6790146103fa5780637ecebe0014610416576101cf565b80633a46b1a811610171578063587cde1e1161014b578063587cde1e146103445780635c19a95c146103745780636fcfff451461039057806370a08231146103c0576101cf565b80633a46b1a8146102dc57806340c10f191461030c57806342966c6814610328576101cf565b806323b872dd116101ad57806323b872dd14610240578063313ce567146102705780633644e5151461028e57806339509351146102ac576101cf565b806306fdde03146101d4578063095ea7b3146101f257806318160ddd14610222575b600080fd5b6101dc610600565b6040516101e99190612f76565b60405180910390f35b61020c60048036038101906102079190613031565b610692565b604051610219919061308c565b60405180910390f35b61022a6106b5565b60405161023791906130b6565b60405180910390f35b61025a600480360381019061025591906130d1565b6106bf565b604051610267919061308c565b60405180910390f35b6102786106ee565b6040516102859190613140565b60405180910390f35b6102966106f7565b6040516102a39190613174565b60405180910390f35b6102c660048036038101906102c19190613031565b610706565b6040516102d3919061308c565b60405180910390f35b6102f660048036038101906102f19190613031565b61073d565b60405161030391906130b6565b60405180910390f35b61032660048036038101906103219190613031565b6107d2565b005b610342600480360381019061033d919061318f565b6107e8565b005b61035e600480360381019061035991906131bc565b6107fc565b60405161036b91906131f8565b60405180910390f35b61038e600480360381019061038991906131bc565b610866565b005b6103aa60048036038101906103a591906131bc565b61087a565b6040516103b79190613232565b60405180910390f35b6103da60048036038101906103d591906131bc565b6108cf565b6040516103e791906130b6565b60405180910390f35b6103f8610918565b005b610414600480360381019061040f9190613031565b61092c565b005b610430600480360381019061042b91906131bc565b61094c565b60405161043d91906130b6565b60405180910390f35b61044e61099c565b005b610458610b9c565b60405161046591906131f8565b60405180910390f35b6104886004803603810190610483919061318f565b610bc6565b60405161049591906130b6565b60405180910390f35b6104a6610c1d565b6040516104b39190612f76565b60405180910390f35b6104d660048036038101906104d191906131bc565b610caf565b6040516104e391906130b6565b60405180910390f35b61050660048036038101906105019190613031565b610dc2565b604051610513919061308c565b60405180910390f35b61053660048036038101906105319190613031565b610e39565b604051610543919061308c565b60405180910390f35b610566600480360381019061056191906132a5565b610e5c565b005b610582600480360381019061057d9190613332565b610f60565b005b61059e600480360381019061059991906133d4565b6110a2565b6040516105ab91906130b6565b60405180910390f35b6105ce60048036038101906105c99190613440565b611129565b6040516105db91906134f5565b60405180910390f35b6105fe60048036038101906105f991906131bc565b61123a565b005b60606036805461060f9061353f565b80601f016020809104026020016040519081016040528092919081815260200182805461063b9061353f565b80156106885780601f1061065d57610100808354040283529160200191610688565b820191906000526020600020905b81548152906001019060200180831161066b57829003601f168201915b5050505050905090565b60008061069d6112bd565b90506106aa8185856112c5565b600191505092915050565b6000603554905090565b6000806106ca6112bd565b90506106d785828561148e565b6106e285858561151a565b60019150509392505050565b60006012905090565b6000610701611793565b905090565b6000806107116112bd565b905061073281858561072385896110a2565b61072d919061359f565b6112c5565b600191505092915050565b6000438210610781576040517f08c379a00000000000000000000000000000000000000000000000000000000081526004016107789061361f565b60405180910390fd5b6107ca61013160008573ffffffffffffffffffffffffffffffffffffffff1673ffffffffffffffffffffffffffffffffffffffff168152602001908152602001600020836117d3565b905092915050565b6107da611924565b6107e482826119a2565b5050565b6107f96107f36112bd565b826119b0565b50565b600061013060008373ffffffffffffffffffffffffffffffffffffffff1673ffffffffffffffffffffffffffffffffffffffff16815260200190815260200160002060009054906101000a900473ffffffffffffffffffffffffffffffffffffffff169050919050565b6108776108716112bd565b826119be565b50565b60006108c861013160008473ffffffffffffffffffffffffffffffffffffffff1673ffffffffffffffffffffffffffffffffffffffff16815260200190815260200160002080549050611ad9565b9050919050565b6000603360008373ffffffffffffffffffffffffffffffffffffffff1673ffffffffffffffffffffffffffffffffffffffff168152602001908152602001600020549050919050565b610920611924565b61092a6000611b2c565b565b61093e826109386112bd565b8361148e565b61094882826119b0565b5050565b600061099560fd60008473ffffffffffffffffffffffffffffffffffffffff1673ffffffffffffffffffffffffffffffffffffffff168152602001908152602001600020611bf2565b9050919050565b60008060019054906101000a900460ff161590508080156109cd5750600160008054906101000a900460ff1660ff16105b806109fa57506109dc30611c00565b1580156109f95750600160008054906101000a900460ff1660ff16145b5b610a39576040517f08c379a0000000000000000000000000000000000000000000000000000000008152600401610a30906136b1565b60405180910390fd5b60016000806101000a81548160ff021916908360ff1602179055508015610a76576001600060016101000a81548160ff0219169083151502179055505b610aea6040518060400160405280600a81526020017f50726f6f66206f662058000000000000000000000000000000000000000000008152506040518060400160405280600581526020017f504f584d45000000000000000000000000000000000000000000000000000000815250611c23565b610af2611c80565b610afa611cd1565b610b386040518060400160405280600a81526020017f50726f6f66206f66205800000000000000000000000000000000000000000000815250611d2a565b610b40611dbb565b8015610b995760008060016101000a81548160ff0219169083151502179055507f7f26b83ff96e1f2b6a682f133852f6798a09c465da95921460cefb38474024986001604051610b909190613716565b60405180910390a15b50565b6000609760009054906101000a900473ffffffffffffffffffffffffffffffffffffffff16905090565b6000438210610c0a576040517f08c379a0000000000000000000000000000000000000000000000000000000008152600401610c019061361f565b60405180910390fd5b610c16610132836117d3565b9050919050565b606060378054610c2c9061353f565b80601f0160208091040260200160405190810160405280929190818152602001828054610c589061353f565b8015610ca55780601f10610c7a57610100808354040283529160200191610ca5565b820191906000526020600020905b815481529060010190602001808311610c8857829003601f168201915b5050505050905090565b60008061013160008473ffffffffffffffffffffffffffffffffffffffff1673ffffffffffffffffffffffffffffffffffffffff16815260200190815260200160002080549050905060008114610d995761013160008473ffffffffffffffffffffffffffffffffffffffff1673ffffffffffffffffffffffffffffffffffffffff168152602001908152602001600020600182610d4d9190613731565b81548110610d5e57610d5d613765565b5b9060005260206000200160000160049054906101000a90047bffffffffffffffffffffffffffffffffffffffffffffffffffffffff16610d9c565b60005b7bffffffffffffffffffffffffffffffffffffffffffffffffffffffff16915050919050565b600080610dcd6112bd565b90506000610ddb82866110a2565b905083811015610e20576040517f08c379a0000000000000000000000000000000000000000000000000000000008152600401610e1790613806565b60405180910390fd5b610e2d82868684036112c5565b60019250505092915050565b600080610e446112bd565b9050610e5181858561151a565b600191505092915050565b83421115610e9f576040517f08c379a0000000000000000000000000000000000000000000000000000000008152600401610e9690613872565b60405180910390fd5b6000610f01610ef97fe48329057bfd03d55e49b547132e39cffd9c1820ad7b9d4c5307691425d15adf898989604051602001610ede9493929190613892565b60405160208183030381529060405280519060200120611e0c565b858585611e26565b9050610f0c81611e51565b8614610f4d576040517f08c379a0000000000000000000000000000000000000000000000000000000008152600401610f4490613923565b60405180910390fd5b610f5781886119be565b50505050505050565b83421115610fa3576040517f08c379a0000000000000000000000000000000000000000000000000000000008152600401610f9a9061398f565b60405180910390fd5b60007f6e71edae12b1b97f4d1f60370fef10105fa2faae0126114a169c64845d6126c9888888610fd28c611e51565b89604051602001610fe8969594939291906139af565b604051602081830303815290604052805190602001209050600061100b82611e0c565b9050600061101b82878787611e26565b90508973ffffffffffffffffffffffffffffffffffffffff168173ffffffffffffffffffffffffffffffffffffffff161461108b576040517f08c379a000000000000000000000000000000000000000000000000000000000815260040161108290613a5c565b60405180910390fd5b6110968a8a8a6112c5565b50505050505050505050565b6000603460008473ffffffffffffffffffffffffffffffffffffffff1673ffffffffffffffffffffffffffffffffffffffff16815260200190815260200160002060008373ffffffffffffffffffffffffffffffffffffffff1673ffffffffffffffffffffffffffffffffffffffff16815260200190815260200160002054905092915050565b611131612ea8565b61013160008473ffffffffffffffffffffffffffffffffffffffff1673ffffffffffffffffffffffffffffffffffffffff1681526020019081526020016000208263ffffffff168154811061118957611188613765565b5b906000526020600020016040518060400160405290816000820160009054906101000a900463ffffffff1663ffffffff1663ffffffff1681526020016000820160049054906101000a90047bffffffffffffffffffffffffffffffffffffffffffffffffffffffff167bffffffffffffffffffffffffffffffffffffffffffffffffffffffff167bffffffffffffffffffffffffffffffffffffffffffffffffffffffff1681525050905092915050565b611242611924565b600073ffffffffffffffffffffffffffffffffffffffff168173ffffffffffffffffffffffffffffffffffffffff16036112b1576040517f08c379a00000000000000000000000000000000000000000000000000000000081526004016112a890613aee565b60405180910390fd5b6112ba81611b2c565b50565b600033905090565b600073ffffffffffffffffffffffffffffffffffffffff168373ffffffffffffffffffffffffffffffffffffffff1603611334576040517f08c379a000000000000000000000000000000000000000000000000000000000815260040161132b90613b80565b60405180910390fd5b600073ffffffffffffffffffffffffffffffffffffffff168273ffffffffffffffffffffffffffffffffffffffff16036113a3576040517f08c379a000000000000000000000000000000000000000000000000000000000815260040161139a90613c12565b60405180910390fd5b80603460008573ffffffffffffffffffffffffffffffffffffffff1673ffffffffffffffffffffffffffffffffffffffff16815260200190815260200160002060008473ffffffffffffffffffffffffffffffffffffffff1673ffffffffffffffffffffffffffffffffffffffff168152602001908152602001600020819055508173ffffffffffffffffffffffffffffffffffffffff168373ffffffffffffffffffffffffffffffffffffffff167f8c5be1e5ebec7d5bd14f71427d1e84f3dd0314c0f7b2291e5b200ac8c7c3b9258360405161148191906130b6565b60405180910390a3505050565b600061149a84846110a2565b90507fffffffffffffffffffffffffffffffffffffffffffffffffffffffffffffffff81146115145781811015611506576040517f08c379a00000000000000000000000000000000000000000000000000000000081526004016114fd90613c7e565b60405180910390fd5b61151384848484036112c5565b5b50505050565b600073ffffffffffffffffffffffffffffffffffffffff168373ffffffffffffffffffffffffffffffffffffffff1603611589576040517f08c379a000000000000000000000000000000000000000000000000000000000815260040161158090613d10565b60405180910390fd5b600073ffffffffffffffffffffffffffffffffffffffff168273ffffffffffffffffffffffffffffffffffffffff16036115f8576040517f08c379a00000000000000000000000000000000000000000000000000000000081526004016115ef90613da2565b60405180910390fd5b611603838383611eaf565b6000603360008573ffffffffffffffffffffffffffffffffffffffff1673ffffffffffffffffffffffffffffffffffffffff1681526020019081526020016000205490508181101561168a576040517f08c379a000000000000000000000000000000000000000000000000000000000815260040161168190613e34565b60405180910390fd5b818103603360008673ffffffffffffffffffffffffffffffffffffffff1673ffffffffffffffffffffffffffffffffffffffff1681526020019081526020016000208190555081603360008573ffffffffffffffffffffffffffffffffffffffff1673ffffffffffffffffffffffffffffffffffffffff168152602001908152602001600020600082825401925050819055508273ffffffffffffffffffffffffffffffffffffffff168473ffffffffffffffffffffffffffffffffffffffff167fddf252ad1be2c89b69c2b068fc378daa952ba7f163c4a11628f55a4df523b3ef8460405161177a91906130b6565b60405180910390a361178d848484611eb4565b50505050565b60006117ce7f8b73c3c69bb8fe3d512ecc4cf759cc79239f7b179b0ffacaa9a75d522b39400f6117c1611ec4565b6117c9611ece565b611ed8565b905090565b6000808380549050905060008082905060058311156118495760006117f784611f12565b846118029190613731565b90508561180f888361200b565b60000160009054906101000a900463ffffffff1663ffffffff16111561183757809150611847565b600181611844919061359f565b92505b505b5b808210156118a957600061185e8383612020565b90508561186b888361200b565b60000160009054906101000a900463ffffffff1663ffffffff161115611893578091506118a3565b6001816118a0919061359f565b92505b5061184a565b600081146118f8576118c7866001836118c29190613731565b61200b565b60000160049054906101000a90047bffffffffffffffffffffffffffffffffffffffffffffffffffffffff166118fb565b60005b7bffffffffffffffffffffffffffffffffffffffffffffffffffffffff16935050505092915050565b61192c6112bd565b73ffffffffffffffffffffffffffffffffffffffff1661194a610b9c565b73ffffffffffffffffffffffffffffffffffffffff16146119a0576040517f08c379a000000000000000000000000000000000000000000000000000000000815260040161199790613ea0565b60405180910390fd5b565b6119ac8282612046565b5050565b6119ba82826120d4565b5050565b60006119c9836107fc565b905060006119d6846108cf565b90508261013060008673ffffffffffffffffffffffffffffffffffffffff1673ffffffffffffffffffffffffffffffffffffffff16815260200190815260200160002060006101000a81548173ffffffffffffffffffffffffffffffffffffffff021916908373ffffffffffffffffffffffffffffffffffffffff1602179055508273ffffffffffffffffffffffffffffffffffffffff168273ffffffffffffffffffffffffffffffffffffffff168573ffffffffffffffffffffffffffffffffffffffff167f3134e8a2e6d97e929a7e54011ea5485d7d196dd5f0ba4d4ef95803e8e3fc257f60405160405180910390a4611ad38284836120f3565b50505050565b600063ffffffff8016821115611b24576040517f08c379a0000000000000000000000000000000000000000000000000000000008152600401611b1b90613f32565b60405180910390fd5b819050919050565b6000609760009054906101000a900473ffffffffffffffffffffffffffffffffffffffff16905081609760006101000a81548173ffffffffffffffffffffffffffffffffffffffff021916908373ffffffffffffffffffffffffffffffffffffffff1602179055508173ffffffffffffffffffffffffffffffffffffffff168173ffffffffffffffffffffffffffffffffffffffff167f8be0079c531659141344cd1fd0a4f28419497f9722a3daafe3b4186f6b6457e060405160405180910390a35050565b600081600001549050919050565b6000808273ffffffffffffffffffffffffffffffffffffffff163b119050919050565b600060019054906101000a900460ff16611c72576040517f08c379a0000000000000000000000000000000000000000000000000000000008152600401611c6990613fc4565b60405180910390fd5b611c7c82826122ee565b5050565b600060019054906101000a900460ff16611ccf576040517f08c379a0000000000000000000000000000000000000000000000000000000008152600401611cc690613fc4565b60405180910390fd5b565b600060019054906101000a900460ff16611d20576040517f08c379a0000000000000000000000000000000000000000000000000000000008152600401611d1790613fc4565b60405180910390fd5b611d28612361565b565b600060019054906101000a900460ff16611d79576040517f08c379a0000000000000000000000000000000000000000000000000000000008152600401611d7090613fc4565b60405180910390fd5b611db8816040518060400160405280600181526020017f31000000000000000000000000000000000000000000000000000000000000008152506123c2565b50565b600060019054906101000a900460ff16611e0a576040517f08c379a0000000000000000000000000000000000000000000000000000000008152600401611e0190613fc4565b60405180910390fd5b565b6000611e1f611e19611793565b8361243d565b9050919050565b6000806000611e3787878787612470565b91509150611e4481612552565b8192505050949350505050565b60008060fd60008473ffffffffffffffffffffffffffffffffffffffff1673ffffffffffffffffffffffffffffffffffffffff1681526020019081526020016000209050611e9e81611bf2565b9150611ea9816126b8565b50919050565b505050565b611ebf8383836126ce565b505050565b600060c954905090565b600060ca54905090565b60008383834630604051602001611ef3959493929190613fe4565b6040516020818303038152906040528051906020012090509392505050565b6000808203611f245760009050612006565b60006001611f31846126f9565b901c6001901b90506001818481611f4b57611f4a614037565b5b048201901c90506001818481611f6457611f63614037565b5b048201901c90506001818481611f7d57611f7c614037565b5b048201901c90506001818481611f9657611f95614037565b5b048201901c90506001818481611faf57611fae614037565b5b048201901c90506001818481611fc857611fc7614037565b5b048201901c90506001818481611fe157611fe0614037565b5b048201901c905061200281828581611ffc57611ffb614037565b5b046127da565b9150505b919050565b60008260005281602060002001905092915050565b600060028284186120319190614066565b82841661203e919061359f565b905092915050565b61205082826127f3565b61205861294a565b7bffffffffffffffffffffffffffffffffffffffffffffffffffffffff1661207e6106b5565b11156120bf576040517f08c379a00000000000000000000000000000000000000000000000000000000081526004016120b690614109565b60405180910390fd5b6120ce61013261296e83612984565b50505050565b6120de8282612c53565b6120ed610132612e2283612984565b50505050565b8173ffffffffffffffffffffffffffffffffffffffff168373ffffffffffffffffffffffffffffffffffffffff161415801561212f5750600081115b156122e957600073ffffffffffffffffffffffffffffffffffffffff168373ffffffffffffffffffffffffffffffffffffffff161461220e576000806121b761013160008773ffffffffffffffffffffffffffffffffffffffff1673ffffffffffffffffffffffffffffffffffffffff168152602001908152602001600020612e2285612984565b915091508473ffffffffffffffffffffffffffffffffffffffff167fdec2bacdd2f05b59de34da9b523dff8be42e5e38e818c82fdb0bae774387a7248383604051612203929190614129565b60405180910390a250505b600073ffffffffffffffffffffffffffffffffffffffff168273ffffffffffffffffffffffffffffffffffffffff16146122e85760008061229161013160008673ffffffffffffffffffffffffffffffffffffffff1673ffffffffffffffffffffffffffffffffffffffff16815260200190815260200160002061296e85612984565b915091508373ffffffffffffffffffffffffffffffffffffffff167fdec2bacdd2f05b59de34da9b523dff8be42e5e38e818c82fdb0bae774387a72483836040516122dd929190614129565b60405180910390a250505b5b505050565b600060019054906101000a900460ff1661233d576040517f08c379a000000000000000000000000000000000000000000000000000000000815260040161233490613fc4565b60405180910390fd5b816036908161234c9190614323565b50806037908161235c9190614323565b505050565b600060019054906101000a900460ff166123b0576040517f08c379a00000000000000000000000000000000000000000000000000000000081526004016123a790613fc4565b60405180910390fd5b6123c06123bb6112bd565b611b2c565b565b600060019054906101000a900460ff16612411576040517f08c379a000000000000000000000000000000000000000000000000000000000815260040161240890613fc4565b60405180910390fd5b6000828051906020012090506000828051906020012090508160c9819055508060ca8190555050505050565b6000828260405160200161245292919061446d565b60405160208183030381529060405280519060200120905092915050565b6000807f7fffffffffffffffffffffffffffffff5d576e7357a4501ddfe92f46681b20a08360001c11156124ab576000600391509150612549565b6000600187878787604051600081526020016040526040516124d094939291906144a4565b6020604051602081039080840390855afa1580156124f2573d6000803e3d6000fd5b505050602060405103519050600073ffffffffffffffffffffffffffffffffffffffff168173ffffffffffffffffffffffffffffffffffffffff160361254057600060019250925050612549565b80600092509250505b94509492505050565b60006004811115612566576125656144e9565b5b816004811115612579576125786144e9565b5b03156126b55760016004811115612593576125926144e9565b5b8160048111156125a6576125a56144e9565b5b036125e6576040517f08c379a00000000000000000000000000000000000000000000000000000000081526004016125dd90614564565b60405180910390fd5b600260048111156125fa576125f96144e9565b5b81600481111561260d5761260c6144e9565b5b0361264d576040517f08c379a0000000000000000000000000000000000000000000000000000000008152600401612644906145d0565b60405180910390fd5b60036004811115612661576126606144e9565b5b816004811115612674576126736144e9565b5b036126b4576040517f08c379a00000000000000000000000000000000000000000000000000000000081526004016126ab90614662565b60405180910390fd5b5b50565b6001816000016000828254019250508190555050565b6126d9838383612e38565b6126f46126e5846107fc565b6126ee846107fc565b836120f3565b505050565b600080600090506000608084901c111561271b57608083901c92506080810190505b6000604084901c111561273657604083901c92506040810190505b6000602084901c111561275157602083901c92506020810190505b6000601084901c111561276c57601083901c92506010810190505b6000600884901c111561278757600883901c92506008810190505b6000600484901c11156127a257600483901c92506004810190505b6000600284901c11156127bd57600283901c92506002810190505b6000600184901c11156127d1576001810190505b80915050919050565b60008183106127e957816127eb565b825b905092915050565b600073ffffffffffffffffffffffffffffffffffffffff168273ffffffffffffffffffffffffffffffffffffffff1603612862576040517f08c379a0000000000000000000000000000000000000000000000000000000008152600401612859906146ce565b60405180910390fd5b61286e60008383611eaf565b8060356000828254612880919061359f565b9250508190555080603360008473ffffffffffffffffffffffffffffffffffffffff1673ffffffffffffffffffffffffffffffffffffffff168152602001908152602001600020600082825401925050819055508173ffffffffffffffffffffffffffffffffffffffff16600073ffffffffffffffffffffffffffffffffffffffff167fddf252ad1be2c89b69c2b068fc378daa952ba7f163c4a11628f55a4df523b3ef8360405161293291906130b6565b60405180910390a361294660008383611eb4565b5050565b60007bffffffffffffffffffffffffffffffffffffffffffffffffffffffff905090565b6000818361297c919061359f565b905092915050565b6000806000858054905090506000808214612a53576129af876001846129aa9190613731565b61200b565b6040518060400160405290816000820160009054906101000a900463ffffffff1663ffffffff1663ffffffff1681526020016000820160049054906101000a90047bffffffffffffffffffffffffffffffffffffffffffffffffffffffff167bffffffffffffffffffffffffffffffffffffffffffffffffffffffff167bffffffffffffffffffffffffffffffffffffffffffffffffffffffff1681525050612a8f565b6040518060400160405280600063ffffffff16815260200160007bffffffffffffffffffffffffffffffffffffffffffffffffffffffff168152505b905080602001517bffffffffffffffffffffffffffffffffffffffffffffffffffffffff169350612ac484868863ffffffff16565b9250600082118015612adf575043816000015163ffffffff16145b15612b5957612aed83612e3d565b612b0388600185612afe9190613731565b61200b565b60000160046101000a8154817bffffffffffffffffffffffffffffffffffffffffffffffffffffffff02191690837bffffffffffffffffffffffffffffffffffffffffffffffffffffffff160217905550612c49565b866040518060400160405280612b6e43611ad9565b63ffffffff168152602001612b8286612e3d565b7bffffffffffffffffffffffffffffffffffffffffffffffffffffffff168152509080600181540180825580915050600190039060005260206000200160009091909190915060008201518160000160006101000a81548163ffffffff021916908363ffffffff16021790555060208201518160000160046101000a8154817bffffffffffffffffffffffffffffffffffffffffffffffffffffffff02191690837bffffffffffffffffffffffffffffffffffffffffffffffffffffffff16021790555050505b5050935093915050565b600073ffffffffffffffffffffffffffffffffffffffff168273ffffffffffffffffffffffffffffffffffffffff1603612cc2576040517f08c379a0000000000000000000000000000000000000000000000000000000008152600401612cb990614760565b60405180910390fd5b612cce82600083611eaf565b6000603360008473ffffffffffffffffffffffffffffffffffffffff1673ffffffffffffffffffffffffffffffffffffffff16815260200190815260200160002054905081811015612d55576040517f08c379a0000000000000000000000000000000000000000000000000000000008152600401612d4c906147f2565b60405180910390fd5b818103603360008573ffffffffffffffffffffffffffffffffffffffff1673ffffffffffffffffffffffffffffffffffffffff1681526020019081526020016000208190555081603560008282540392505081905550600073ffffffffffffffffffffffffffffffffffffffff168373ffffffffffffffffffffffffffffffffffffffff167fddf252ad1be2c89b69c2b068fc378daa952ba7f163c4a11628f55a4df523b3ef84604051612e0991906130b6565b60405180910390a3612e1d83600084611eb4565b505050565b60008183612e309190613731565b905092915050565b505050565b60007bffffffffffffffffffffffffffffffffffffffffffffffffffffffff8016821115612ea0576040517f08c379a0000000000000000000000000000000000000000000000000000000008152600401612e9790614884565b60405180910390fd5b819050919050565b6040518060400160405280600063ffffffff16815260200160007bffffffffffffffffffffffffffffffffffffffffffffffffffffffff1681525090565b600081519050919050565b600082825260208201905092915050565b60005b83811015612f20578082015181840152602081019050612f05565b60008484015250505050565b6000601f19601f8301169050919050565b6000612f4882612ee6565b612f528185612ef1565b9350612f62818560208601612f02565b612f6b81612f2c565b840191505092915050565b60006020820190508181036000830152612f908184612f3d565b905092915050565b600080fd5b600073ffffffffffffffffffffffffffffffffffffffff82169050919050565b6000612fc882612f9d565b9050919050565b612fd881612fbd565b8114612fe357600080fd5b50565b600081359050612ff581612fcf565b92915050565b6000819050919050565b61300e81612ffb565b811461301957600080fd5b50565b60008135905061302b81613005565b92915050565b6000806040838503121561304857613047612f98565b5b600061305685828601612fe6565b92505060206130678582860161301c565b9150509250929050565b60008115159050919050565b61308681613071565b82525050565b60006020820190506130a1600083018461307d565b92915050565b6130b081612ffb565b82525050565b60006020820190506130cb60008301846130a7565b92915050565b6000806000606084860312156130ea576130e9612f98565b5b60006130f886828701612fe6565b935050602061310986828701612fe6565b925050604061311a8682870161301c565b9150509250925092565b600060ff82169050919050565b61313a81613124565b82525050565b60006020820190506131556000830184613131565b92915050565b6000819050919050565b61316e8161315b565b82525050565b60006020820190506131896000830184613165565b92915050565b6000602082840312156131a5576131a4612f98565b5b60006131b38482850161301c565b91505092915050565b6000602082840312156131d2576131d1612f98565b5b60006131e084828501612fe6565b91505092915050565b6131f281612fbd565b82525050565b600060208201905061320d60008301846131e9565b92915050565b600063ffffffff82169050919050565b61322c81613213565b82525050565b60006020820190506132476000830184613223565b92915050565b61325681613124565b811461326157600080fd5b50565b6000813590506132738161324d565b92915050565b6132828161315b565b811461328d57600080fd5b50565b60008135905061329f81613279565b92915050565b60008060008060008060c087890312156132c2576132c1612f98565b5b60006132d089828a01612fe6565b96505060206132e189828a0161301c565b95505060406132f289828a0161301c565b945050606061330389828a01613264565b935050608061331489828a01613290565b92505060a061332589828a01613290565b9150509295509295509295565b600080600080600080600060e0888a03121561335157613350612f98565b5b600061335f8a828b01612fe6565b97505060206133708a828b01612fe6565b96505060406133818a828b0161301c565b95505060606133928a828b0161301c565b94505060806133a38a828b01613264565b93505060a06133b48a828b01613290565b92505060c06133c58a828b01613290565b91505092959891949750929550565b600080604083850312156133eb576133ea612f98565b5b60006133f985828601612fe6565b925050602061340a85828601612fe6565b9150509250929050565b61341d81613213565b811461342857600080fd5b50565b60008135905061343a81613414565b92915050565b6000806040838503121561345757613456612f98565b5b600061346585828601612fe6565b92505060206134768582860161342b565b9150509250929050565b61348981613213565b82525050565b60007bffffffffffffffffffffffffffffffffffffffffffffffffffffffff82169050919050565b6134c08161348f565b82525050565b6040820160008201516134dc6000850182613480565b5060208201516134ef60208501826134b7565b50505050565b600060408201905061350a60008301846134c6565b92915050565b7f4e487b7100000000000000000000000000000000000000000000000000000000600052602260045260246000fd5b6000600282049050600182168061355757607f821691505b60208210810361356a57613569613510565b5b50919050565b7f4e487b7100000000000000000000000000000000000000000000000000000000600052601160045260246000fd5b60006135aa82612ffb565b91506135b583612ffb565b92508282019050808211156135cd576135cc613570565b5b92915050565b7f4552433230566f7465733a20626c6f636b206e6f7420796574206d696e656400600082015250565b6000613609601f83612ef1565b9150613614826135d3565b602082019050919050565b60006020820190508181036000830152613638816135fc565b9050919050565b7f496e697469616c697a61626c653a20636f6e747261637420697320616c72656160008201527f647920696e697469616c697a6564000000000000000000000000000000000000602082015250565b600061369b602e83612ef1565b91506136a68261363f565b604082019050919050565b600060208201905081810360008301526136ca8161368e565b9050919050565b6000819050919050565b6000819050919050565b60006137006136fb6136f6846136d1565b6136db565b613124565b9050919050565b613710816136e5565b82525050565b600060208201905061372b6000830184613707565b92915050565b600061373c82612ffb565b915061374783612ffb565b925082820390508181111561375f5761375e613570565b5b92915050565b7f4e487b7100000000000000000000000000000000000000000000000000000000600052603260045260246000fd5b7f45524332303a2064656372656173656420616c6c6f77616e63652062656c6f7760008201527f207a65726f000000000000000000000000000000000000000000000000000000602082015250565b60006137f0602583612ef1565b91506137fb82613794565b604082019050919050565b6000602082019050818103600083015261381f816137e3565b9050919050565b7f4552433230566f7465733a207369676e61747572652065787069726564000000600082015250565b600061385c601d83612ef1565b915061386782613826565b602082019050919050565b6000602082019050818103600083015261388b8161384f565b9050919050565b60006080820190506138a76000830187613165565b6138b460208301866131e9565b6138c160408301856130a7565b6138ce60608301846130a7565b95945050505050565b7f4552433230566f7465733a20696e76616c6964206e6f6e636500000000000000600082015250565b600061390d601983612ef1565b9150613918826138d7565b602082019050919050565b6000602082019050818103600083015261393c81613900565b9050919050565b7f45524332305065726d69743a206578706972656420646561646c696e65000000600082015250565b6000613979601d83612ef1565b915061398482613943565b602082019050919050565b600060208201905081810360008301526139a88161396c565b9050919050565b600060c0820190506139c46000830189613165565b6139d160208301886131e9565b6139de60408301876131e9565b6139eb60608301866130a7565b6139f860808301856130a7565b613a0560a08301846130a7565b979650505050505050565b7f45524332305065726d69743a20696e76616c6964207369676e61747572650000600082015250565b6000613a46601e83612ef1565b9150613a5182613a10565b602082019050919050565b60006020820190508181036000830152613a7581613a39565b9050919050565b7f4f776e61626c653a206e6577206f776e657220697320746865207a65726f206160008201527f6464726573730000000000000000000000000000000000000000000000000000602082015250565b6000613ad8602683612ef1565b9150613ae382613a7c565b604082019050919050565b60006020820190508181036000830152613b0781613acb565b9050919050565b7f45524332303a20617070726f76652066726f6d20746865207a65726f2061646460008201527f7265737300000000000000000000000000000000000000000000000000000000602082015250565b6000613b6a602483612ef1565b9150613b7582613b0e565b604082019050919050565b60006020820190508181036000830152613b9981613b5d565b9050919050565b7f45524332303a20617070726f766520746f20746865207a65726f20616464726560008201527f7373000000000000000000000000000000000000000000000000000000000000602082015250565b6000613bfc602283612ef1565b9150613c0782613ba0565b604082019050919050565b60006020820190508181036000830152613c2b81613bef565b9050919050565b7f45524332303a20696e73756666696369656e7420616c6c6f77616e6365000000600082015250565b6000613c68601d83612ef1565b9150613c7382613c32565b602082019050919050565b60006020820190508181036000830152613c9781613c5b565b9050919050565b7f45524332303a207472616e736665722066726f6d20746865207a65726f20616460008201527f6472657373000000000000000000000000000000000000000000000000000000602082015250565b6000613cfa602583612ef1565b9150613d0582613c9e565b604082019050919050565b60006020820190508181036000830152613d2981613ced565b9050919050565b7f45524332303a207472616e7366657220746f20746865207a65726f206164647260008201527f6573730000000000000000000000000000000000000000000000000000000000602082015250565b6000613d8c602383612ef1565b9150613d9782613d30565b604082019050919050565b60006020820190508181036000830152613dbb81613d7f565b9050919050565b7f45524332303a207472616e7366657220616d6f756e742065786365656473206260008201527f616c616e63650000000000000000000000000000000000000000000000000000602082015250565b6000613e1e602683612ef1565b9150613e2982613dc2565b604082019050919050565b60006020820190508181036000830152613e4d81613e11565b9050919050565b7f4f776e61626c653a2063616c6c6572206973206e6f7420746865206f776e6572600082015250565b6000613e8a602083612ef1565b9150613e9582613e54565b602082019050919050565b60006020820190508181036000830152613eb981613e7d565b9050919050565b7f53616665436173743a2076616c756520646f65736e27742066697420696e203360008201527f3220626974730000000000000000000000000000000000000000000000000000602082015250565b6000613f1c602683612ef1565b9150613f2782613ec0565b604082019050919050565b60006020820190508181036000830152613f4b81613f0f565b9050919050565b7f496e697469616c697a61626c653a20636f6e7472616374206973206e6f74206960008201527f6e697469616c697a696e67000000000000000000000000000000000000000000602082015250565b6000613fae602b83612ef1565b9150613fb982613f52565b604082019050919050565b60006020820190508181036000830152613fdd81613fa1565b9050919050565b600060a082019050613ff96000830188613165565b6140066020830187613165565b6140136040830186613165565b61402060608301856130a7565b61402d60808301846131e9565b9695505050505050565b7f4e487b7100000000000000000000000000000000000000000000000000000000600052601260045260246000fd5b600061407182612ffb565b915061407c83612ffb565b92508261408c5761408b614037565b5b828204905092915050565b7f4552433230566f7465733a20746f74616c20737570706c79207269736b73206f60008201527f766572666c6f77696e6720766f74657300000000000000000000000000000000602082015250565b60006140f3603083612ef1565b91506140fe82614097565b604082019050919050565b60006020820190508181036000830152614122816140e6565b9050919050565b600060408201905061413e60008301856130a7565b61414b60208301846130a7565b9392505050565b7f4e487b7100000000000000000000000000000000000000000000000000000000600052604160045260246000fd5b60008190508160005260206000209050919050565b60006020601f8301049050919050565b600082821b905092915050565b6000600883026141e37fffffffffffffffffffffffffffffffffffffffffffffffffffffffffffffffff826141a6565b6141ed86836141a6565b95508019841693508086168417925050509392505050565b600061422061421b61421684612ffb565b6136db565b612ffb565b9050919050565b6000819050919050565b61423a83614205565b61424e61424682614227565b8484546141b3565b825550505050565b600090565b614263614256565b61426e818484614231565b505050565b5b818110156142925761428760008261425b565b600181019050614274565b5050565b601f8211156142d7576142a881614181565b6142b184614196565b810160208510156142c0578190505b6142d46142cc85614196565b830182614273565b50505b505050565b600082821c905092915050565b60006142fa600019846008026142dc565b1980831691505092915050565b600061431383836142e9565b9150826002028217905092915050565b61432c82612ee6565b67ffffffffffffffff81111561434557614344614152565b5b61434f825461353f565b61435a828285614296565b600060209050601f83116001811461438d576000841561437b578287015190505b6143858582614307565b8655506143ed565b601f19841661439b86614181565b60005b828110156143c35784890151825560018201915060208501945060208101905061439e565b868310156143e057848901516143dc601f8916826142e9565b8355505b6001600288020188555050505b505050505050565b600081905092915050565b7f1901000000000000000000000000000000000000000000000000000000000000600082015250565b60006144366002836143f5565b915061444182614400565b600282019050919050565b6000819050919050565b6144676144628261315b565b61444c565b82525050565b600061447882614429565b91506144848285614456565b6020820191506144948284614456565b6020820191508190509392505050565b60006080820190506144b96000830187613165565b6144c66020830186613131565b6144d36040830185613165565b6144e06060830184613165565b95945050505050565b7f4e487b7100000000000000000000000000000000000000000000000000000000600052602160045260246000fd5b7f45434453413a20696e76616c6964207369676e61747572650000000000000000600082015250565b600061454e601883612ef1565b915061455982614518565b602082019050919050565b6000602082019050818103600083015261457d81614541565b9050919050565b7f45434453413a20696e76616c6964207369676e6174757265206c656e67746800600082015250565b60006145ba601f83612ef1565b91506145c582614584565b602082019050919050565b600060208201905081810360008301526145e9816145ad565b9050919050565b7f45434453413a20696e76616c6964207369676e6174757265202773272076616c60008201527f7565000000000000000000000000000000000000000000000000000000000000602082015250565b600061464c602283612ef1565b9150614657826145f0565b604082019050919050565b6000602082019050818103600083015261467b8161463f565b9050919050565b7f45524332303a206d696e7420746f20746865207a65726f206164647265737300600082015250565b60006146b8601f83612ef1565b91506146c382614682565b602082019050919050565b600060208201905081810360008301526146e7816146ab565b9050919050565b7f45524332303a206275726e2066726f6d20746865207a65726f2061646472657360008201527f7300000000000000000000000000000000000000000000000000000000000000602082015250565b600061474a602183612ef1565b9150614755826146ee565b604082019050919050565b600060208201905081810360008301526147798161473d565b9050919050565b7f45524332303a206275726e20616d6f756e7420657863656564732062616c616e60008201527f6365000000000000000000000000000000000000000000000000000000000000602082015250565b60006147dc602283612ef1565b91506147e782614780565b604082019050919050565b6000602082019050818103600083015261480b816147cf565b9050919050565b7f53616665436173743a2076616c756520646f65736e27742066697420696e203260008201527f3234206269747300000000000000000000000000000000000000000000000000602082015250565b600061486e602783612ef1565b915061487982614812565b604082019050919050565b6000602082019050818103600083015261489d81614861565b905091905056fea2646970667358221220bf99cee8c279a0a6e0cc6a1b78b5621f8dee36fef9dee2d8ee5f1fc9c90c2b3464736f6c63430008130033",
  "immutableReferences": {},
  "source": "// SPDX-License-Identifier: MIT\npragma solidity ^0.8.9;\n\nimport \"@openzeppelin/contracts-upgradeable/token/ERC20/ERC20Upgradeable.sol\";\nimport \"@openzeppelin/contracts-upgradeable/token/ERC20/extensions/ERC20BurnableUpgradeable.sol\";\nimport \"@openzeppelin/contracts-upgradeable/access/OwnableUpgradeable.sol\";\nimport \"@openzeppelin/contracts-upgradeable/token/ERC20/extensions/draft-ERC20PermitUpgradeable.sol\";\nimport \"@openzeppelin/contracts-upgradeable/token/ERC20/extensions/ERC20VotesUpgradeable.sol\";\nimport \"@openzeppelin/contracts-upgradeable/proxy/utils/Initializable.sol\";\n\n/// @custom:security-contact contact@pox.me\ncontract ProofX is Initializable, ERC20Upgradeable, ERC20BurnableUpgradeable, OwnableUpgradeable, ERC20PermitUpgradeable, ERC20VotesUpgradeable {\n    /// @custom:oz-upgrades-unsafe-allow constructor\n    constructor() {\n        _disableInitializers();\n    }\n\n    function initialize() initializer public {\n        __ERC20_init(\"Proof of X\", \"POXME\");\n        __ERC20Burnable_init();\n        __Ownable_init();\n        __ERC20Permit_init(\"Proof of X\");\n        __ERC20Votes_init();\n    }\n\n    function mint(address to, uint256 amount) public onlyOwner {\n        _mint(to, amount);\n    }\n\n    // The following functions are overrides required by Solidity.\n\n    function _afterTokenTransfer(address from, address to, uint256 amount)\n    internal\n    override(ERC20Upgradeable, ERC20VotesUpgradeable)\n    {\n        super._afterTokenTransfer(from, to, amount);\n    }\n\n    function _mint(address to, uint256 amount)\n    internal\n    override(ERC20Upgradeable, ERC20VotesUpgradeable)\n    {\n        super._mint(to, amount);\n    }\n\n    function _burn(address account, uint256 amount)\n    internal\n    override(ERC20Upgradeable, ERC20VotesUpgradeable)\n    {\n        super._burn(account, amount);\n    }\n}\n",
  "sourcePath": "/Users/tebayoso/code/proofx/contract-tokens/contracts/poxmeToken.sol",
  "compiler": {
    "name": "solc",
    "version": "0.8.19+commit.7dd6d404.Emscripten.clang"
  },
  "schemaVersion": "3.4.13",
  "updatedAt": "2023-05-06T17:12:19.257Z",
  "networkType": "ethereum",
  "devdoc": {
    "custom:security-contact": "contact@pox.me",
    "events": {
      "Approval(address,address,uint256)": {
        "details": "Emitted when the allowance of a `spender` for an `owner` is set by a call to {approve}. `value` is the new allowance."
      },
      "DelegateChanged(address,address,address)": {
        "details": "Emitted when an account changes their delegate."
      },
      "DelegateVotesChanged(address,uint256,uint256)": {
        "details": "Emitted when a token transfer or delegate change results in changes to a delegate's number of votes."
      },
      "Initialized(uint8)": {
        "details": "Triggered when the contract has been initialized or reinitialized."
      },
      "Transfer(address,address,uint256)": {
        "details": "Emitted when `value` tokens are moved from one account (`from`) to another (`to`). Note that `value` may be zero."
      }
    },
    "kind": "dev",
    "methods": {
      "DOMAIN_SEPARATOR()": {
        "details": "See {IERC20Permit-DOMAIN_SEPARATOR}."
      },
      "allowance(address,address)": {
        "details": "See {IERC20-allowance}."
      },
      "approve(address,uint256)": {
        "details": "See {IERC20-approve}. NOTE: If `amount` is the maximum `uint256`, the allowance is not updated on `transferFrom`. This is semantically equivalent to an infinite approval. Requirements: - `spender` cannot be the zero address."
      },
      "balanceOf(address)": {
        "details": "See {IERC20-balanceOf}."
      },
      "burn(uint256)": {
        "details": "Destroys `amount` tokens from the caller. See {ERC20-_burn}."
      },
      "burnFrom(address,uint256)": {
        "details": "Destroys `amount` tokens from `account`, deducting from the caller's allowance. See {ERC20-_burn} and {ERC20-allowance}. Requirements: - the caller must have allowance for ``accounts``'s tokens of at least `amount`."
      },
      "checkpoints(address,uint32)": {
        "details": "Get the `pos`-th checkpoint for `account`."
      },
      "constructor": {
        "custom:oz-upgrades-unsafe-allow": "constructor"
      },
      "decimals()": {
        "details": "Returns the number of decimals used to get its user representation. For example, if `decimals` equals `2`, a balance of `505` tokens should be displayed to a user as `5.05` (`505 / 10 ** 2`). Tokens usually opt for a value of 18, imitating the relationship between Ether and Wei. This is the value {ERC20} uses, unless this function is overridden; NOTE: This information is only used for _display_ purposes: it in no way affects any of the arithmetic of the contract, including {IERC20-balanceOf} and {IERC20-transfer}."
      },
      "decreaseAllowance(address,uint256)": {
        "details": "Atomically decreases the allowance granted to `spender` by the caller. This is an alternative to {approve} that can be used as a mitigation for problems described in {IERC20-approve}. Emits an {Approval} event indicating the updated allowance. Requirements: - `spender` cannot be the zero address. - `spender` must have allowance for the caller of at least `subtractedValue`."
      },
      "delegate(address)": {
        "details": "Delegate votes from the sender to `delegatee`."
      },
      "delegateBySig(address,uint256,uint256,uint8,bytes32,bytes32)": {
        "details": "Delegates votes from signer to `delegatee`"
      },
      "delegates(address)": {
        "details": "Get the address `account` is currently delegating to."
      },
      "getPastTotalSupply(uint256)": {
        "details": "Retrieve the `totalSupply` at the end of `blockNumber`. Note, this value is the sum of all balances. It is but NOT the sum of all the delegated votes! Requirements: - `blockNumber` must have been already mined"
      },
      "getPastVotes(address,uint256)": {
        "details": "Retrieve the number of votes for `account` at the end of `blockNumber`. Requirements: - `blockNumber` must have been already mined"
      },
      "getVotes(address)": {
        "details": "Gets the current votes balance for `account`"
      },
      "increaseAllowance(address,uint256)": {
        "details": "Atomically increases the allowance granted to `spender` by the caller. This is an alternative to {approve} that can be used as a mitigation for problems described in {IERC20-approve}. Emits an {Approval} event indicating the updated allowance. Requirements: - `spender` cannot be the zero address."
      },
      "name()": {
        "details": "Returns the name of the token."
      },
      "nonces(address)": {
        "details": "See {IERC20Permit-nonces}."
      },
      "numCheckpoints(address)": {
        "details": "Get number of checkpoints for `account`."
      },
      "owner()": {
        "details": "Returns the address of the current owner."
      },
      "permit(address,address,uint256,uint256,uint8,bytes32,bytes32)": {
        "details": "See {IERC20Permit-permit}."
      },
      "renounceOwnership()": {
        "details": "Leaves the contract without owner. It will not be possible to call `onlyOwner` functions anymore. Can only be called by the current owner. NOTE: Renouncing ownership will leave the contract without an owner, thereby removing any functionality that is only available to the owner."
      },
      "symbol()": {
        "details": "Returns the symbol of the token, usually a shorter version of the name."
      },
      "totalSupply()": {
        "details": "See {IERC20-totalSupply}."
      },
      "transfer(address,uint256)": {
        "details": "See {IERC20-transfer}. Requirements: - `to` cannot be the zero address. - the caller must have a balance of at least `amount`."
      },
      "transferFrom(address,address,uint256)": {
        "details": "See {IERC20-transferFrom}. Emits an {Approval} event indicating the updated allowance. This is not required by the EIP. See the note at the beginning of {ERC20}. NOTE: Does not update the allowance if the current allowance is the maximum `uint256`. Requirements: - `from` and `to` cannot be the zero address. - `from` must have a balance of at least `amount`. - the caller must have allowance for ``from``'s tokens of at least `amount`."
      },
      "transferOwnership(address)": {
        "details": "Transfers ownership of the contract to a new account (`newOwner`). Can only be called by the current owner."
      }
    },
    "version": 1
  },
  "userdoc": {
    "kind": "user",
    "methods": {},
    "version": 1
  }
}